{
  "transactions": [
    {
      "hash": "0x044f85cb39bc57c7bb0e0ec595aa02188a4cdb69fce69b7e6495525d6e1edea6",
      "transactionType": "CALL",
      "contractName": null,
      "contractAddress": "0x779877a7b0d9e8603169ddbd7836e478b4624789",
      "function": "transferAndCall(address,uint256,bytes)",
      "arguments": [
        "0x9DdfaCa8183c41ad55329BdeeD9F6A8d53168B1B",
        "3000000000000000000",
        "0xa9e35659dd2f389140f983a377f14089dcd2b233c7828a388f6abd3c6de4f694"
      ],
      "transaction": {
        "from": "0x2ca1469804eeb60d897499da8dda674eeae7bfa9",
        "to": "0x779877a7b0d9e8603169ddbd7836e478b4624789",
        "gas": "0x14cbb",
        "value": "0x0",
        "input": "0x4000aea00000000000000000000000009ddfaca8183c41ad55329bdeed9f6a8d53168b1b00000000000000000000000000000000000000000000000029a2241af62c000000000000000000000000000000000000000000000000000000000000000000600000000000000000000000000000000000000000000000000000000000000020a9e35659dd2f389140f983a377f14089dcd2b233c7828a388f6abd3c6de4f694",
        "nonce": "0x1b",
        "chainId": "0xaa36a7"
      },
      "additionalContracts": [],
      "isFixedGasLimit": false
    }
  ],
  "receipts": [
    {
      "status": "0x1",
      "cumulativeGasUsed": "0x883c7c",
      "logs": [
        {
          "address": "0x779877a7b0d9e8603169ddbd7836e478b4624789",
          "topics": [
            "0xddf252ad1be2c89b69c2b068fc378daa952ba7f163c4a11628f55a4df523b3ef",
            "0x0000000000000000000000002ca1469804eeb60d897499da8dda674eeae7bfa9",
            "0x0000000000000000000000009ddfaca8183c41ad55329bdeed9f6a8d53168b1b"
          ],
          "data": "0x00000000000000000000000000000000000000000000000029a2241af62c0000",
          "blockHash": "0x1d038aa92992f99ec127ed4abba17940764a374a02a8d3b5382afc6cb4e09830",
          "blockNumber": "0x6204d6",
          "transactionHash": "0x044f85cb39bc57c7bb0e0ec595aa02188a4cdb69fce69b7e6495525d6e1edea6",
          "transactionIndex": "0x3a",
          "logIndex": "0x7d",
          "removed": false
        },
        {
          "address": "0x779877a7b0d9e8603169ddbd7836e478b4624789",
          "topics": [
            "0xe19260aff97b920c7df27010903aeb9c8d2be5d310a2c67824cf3f15396e4c16",
            "0x0000000000000000000000002ca1469804eeb60d897499da8dda674eeae7bfa9",
            "0x0000000000000000000000009ddfaca8183c41ad55329bdeed9f6a8d53168b1b"
          ],
          "data": "0x00000000000000000000000000000000000000000000000029a2241af62c000000000000000000000000000000000000000000000000000000000000000000400000000000000000000000000000000000000000000000000000000000000020a9e35659dd2f389140f983a377f14089dcd2b233c7828a388f6abd3c6de4f694",
          "blockHash": "0x1d038aa92992f99ec127ed4abba17940764a374a02a8d3b5382afc6cb4e09830",
          "blockNumber": "0x6204d6",
          "transactionHash": "0x044f85cb39bc57c7bb0e0ec595aa02188a4cdb69fce69b7e6495525d6e1edea6",
          "transactionIndex": "0x3a",
          "logIndex": "0x7e",
          "removed": false
        },
        {
          "address": "0x9ddfaca8183c41ad55329bdeed9f6a8d53168b1b",
          "topics": [
            "0x1ced9348ff549fceab2ac57cd3a9de38edaaab274b725ee82c23e8fc8c4eec7a",
            "0xa9e35659dd2f389140f983a377f14089dcd2b233c7828a388f6abd3c6de4f694"
          ],
          "data": "0x0000000000000000000000000000000000000000000000004563918244f400000000000000000000000000000000000000000000000000006f05b59d3b200000",
          "blockHash": "0x1d038aa92992f99ec127ed4abba17940764a374a02a8d3b5382afc6cb4e09830",
          "blockNumber": "0x6204d6",
          "transactionHash": "0x044f85cb39bc57c7bb0e0ec595aa02188a4cdb69fce69b7e6495525d6e1edea6",
          "transactionIndex": "0x3a",
          "logIndex": "0x7f",
          "removed": false
        }
      ],
      "logsBloom": "0x00000004000000000000000000000000000000000020000000000000020000000000000000000000000000000000000000000000000000000000000000000000000000000000000000000109000000040000000040000000000020000020000008000000000000000000000000000000000000000000000000000010000040000000000000000000000000010000800000000020000000000000000000000000000000000000000000000000010000000000000000000000000004000000000000000002000000000000000000000000000000000000000100000000000000000010000000000000800000000000000400000000000000000000000000000000",
      "type": "0x2",
      "transactionHash": "0x044f85cb39bc57c7bb0e0ec595aa02188a4cdb69fce69b7e6495525d6e1edea6",
      "transactionIndex": "0x3a",
      "blockHash": "0x1d038aa92992f99ec127ed4abba17940764a374a02a8d3b5382afc6cb4e09830",
      "blockNumber": "0x6204d6",
      "gasUsed": "0xf0e5",
      "effectiveGasPrice": "0x1071a7f36",
      "from": "0x2ca1469804eeb60d897499da8dda674eeae7bfa9",
      "to": "0x779877a7b0d9e8603169ddbd7836e478b4624789",
      "contractAddress": null
    }
  ],
  "libraries": [],
  "pending": [],
  "returns": {},
  "timestamp": 1722617164,
  "chain": 11155111,
  "commit": "155937b"
}